:1000000000800020BD010000595C0000195C000068
:10001000195C0000195C0000195C0000195C00000C
:10002000195C0000195C0000195C0000595C0000BC
:10003000595C0000195C0000595C0000095C00007C
:10004000595C0000595C0000595C0000595C0000DC
:10005000595C0000595C0000595C0000595C0000CC
:10006000595C0000595C0000595C0000595C0000BC
:10007000595C0000595C0000595C0000595C0000AC
:10008000595C0000595C0000595C0000595C00009C
:10009000595C0000595C0000595C0000595C00008C
:1000A000191E0000595C0000595C0000595C0000FA
:1000B000595C0000595C0000595C0000595C00006C
:1000C000595C0000595C0000595C0000595C00005C
:1000D000595C0000595C0000595C0000595C00004C
:1000E000595C0000595C0000595C0000595C00003C
:1000F000595C0000515A0000595C0000794600002C
:10010000595C000031630000595C0000595C00003C
:10011000595C0000595C0000595C0000595C00000B
:10012000595C0000595C0000595C0000595C0000FB
:10013000595C0000595C0000595C0000595C0000EB
:10014000595C0000595C0000595C0000595C0000DB
:10015000C5240000E1240000FD2400001925000052
:10016000595C00004D490000595C0000595C0000DA
:10017000595C0000595C0000595C0000595C0000AB
:10018000595C0000595C0000595C0000595C00009B
:10019000595C0000595C0000595C0000595C00008B
:1001A000595C0000595C0000595C0000595C00007B
:1001B000595C0000595C0000C11F0000534B4CF219
:1001C000205210B5DA814DF62812DA8100BF00BF47
:1001D00005F046FD4E4B4FF010621A634D4A9A638C
:1001E0004D4ADA6303F554339A78110703D59A78A8
:1001F00042F008029A70494B49482A221A70494B2A
:10020000DA1C121AC11E22F00302994288BF002292
:10021000454906F029F9454B4548DA1C121AC11E1A
:1002200022F00302994288BF0022002107F0A4F9BE
:10023000404941484FF4DE7206F016F93F4B404A00
:10024000802103F8011B9342FBD14FF0E0233A4A8F
:10025000C3F8082D3B4B8A221A70A3F58053242241
:100260005A70A0221A709A799207FCD59A79D4060E
:10027000FCD4354B9A7902F00C02082AFAD10322F9
:100280001A7140225A719A799006FCD52E4A9379B8
:100290005906FCD51E4B2D49596402219964202131
:1002A0001170917901F00C010C29FAD1284A5A6099
:1002B0004FF0E023274A5A6100229A6107221A610F
:1002C000254AC3F8202D62B603F0CAFE234B5B69B2
:1002D000DA0705D5224803F093FD224B224ADA6162
:1002E000224B1B785B0609D51E4C1F4BE2699A42D4
:1002F00004D11B4803F084FD0023E36106F058FE9F
:1003000005F0B4FC02F044F9FEE700BF0020054010
:1003100000800440823F04000100002B00E0074001
:100320002087FF1FB494FF1F987F0000A4ABFF1F1E
:10033000B494FF1F000000000082FF1F00E400E0F3
:100340005FE400E00050064000400640000003016A
:10035000C0100500FF7601000000202000D00340FF
:100360000000000000E00340A5C3945A00F00740DD
:10037000FFFFFFFFFFFFFFFFFFFFFFFFFFFFFFFF8D
:10038000FFFFFFFFFFFFFFFFFFFFFFFFFFFFFFFF7D
:10039000FFFFFFFFFFFFFFFFFFFFFFFFFFFFFFFF6D
:1003A000FFFFFFFFFFFFFFFFFFFFFFFFFFFFFFFF5D
:1003B000FFFFFFFFFFFFFFFFFFFFFFFFFFFFFFFF4D
:1003C000FFFFFFFFFFFFFFFFFFFFFFFFFFFFFFFF3D
:1003D000FFFFFFFFFFFFFFFFFFFFFFFFFFFFFFFF2D
:1003E000FFFFFFFFFFFFFFFFFFFFFFFFFFFFFFFF1D
:1003F000FFFFFFFFFFFFFFFFFFFFFFFFFFFFFFFF0D
:10040000FFFFFFFFFFFFFFFFFFFFFFFFDEF9FFFF23
:1004100010B5054C237833B9044B13B10448AFF33E
:1004200000800123237010BDB494FF1F0000000062
:10043000907F000008B5034B1BB103490348AFF39D
:10044000008008BD00000000B894FF1F907F0000EE
:1004500010B50446084621706270A3709DF80830FC
:10046000E370012103F006FD0121207803F0D2FCA6
:10047000642003F0DFFDA378454A12780B2B04D0EB
:10048000072B78D142F0010301E002F0FE0341495D
:10049000C96B11F4805F71D09A426FD013F0010FD5
:1004A00009D13D4A4FF4A2719160A2F580524FF4F8
:1004B0001071916162E0394A4FF4A271916102F5C5
:1004C00080524FF40071916058E003F0FD02314911
:1004D000C96B11F4805F43D09A4241D012F0020FF1
:1004E00009D12D4B4FF4A271D960A3F580534FF47D
:1004F0000071D96134E0294B4FF4A271D96103F541
:1005000080534FF40071D9602AE002F0FB032149C7
:10051000C96B11F4805F1BD0934219D013F0040F04
:1005200009D11D4A4FF4A2715160A2F580524FF4D7
:10053000107151610CE0194A4FF4A271516102F53A
:1005400080524FF40071516002E0124BDB6B134696
:100550000F4A137002F04AF810BD0E4AD26B1A46C9
:100560000B4B1A70E3780D2BCFD00E2BEDD142F050
:100570000403DBB2CBE7074BDB6B1346044A137073
:1005800062780C2AA1D0082AE7D143F002029EE744
:10059000F494FF1F0080044000C0044000B00440F9
:1005A000064B4FF00042DA6259631A46D36A002BB9
:1005B000FCDA024B986BC0B2704700BF00C002402B
:1005C00008B50121007803F025FC114B1B78F3B12D
:1005D00013F0010F05D00F4B1A684FF0E023C3F85A
:1005E00000210B4B1B7813F0020F05D0094B5A6802
:1005F0004FF0E023C3F80421054B1B7813F0040FE0
:1006000005D0044B9A684FF0E023C3F8082108BDD9
:100610005C95FF1F5095FF1F10B5254B1B68254AA1
:100620001278002A31D072B6224A127812F0010FE5
:100630000AD04FF0E021D1F880211F4C24682240DD
:100640001E4C2260C1F880211A4A127812F0020F63
:100650000AD04FF0E021D1F88421174C6468224081
:10066000164C6260C1F88421124A127812F0040F0D
:100670000AD04FF0E021D1F888210F4CA468224025
:100680000E4CA260C1F8882162B60D4AD26893422E
:1006900008D00B4A0B491160D36043F080431361CB
:1006A000094B13600021007803F0B4FB10BD00BFBC
:1006B000D094FF1F5C95FF1F4495FF1F5095FF1FAF
:1006C00000C0024001401F0000001F8038B50446F2
:1006D000FFF7A2FFD7212046FFF762FF0021204647
:1006E000FFF75EFF05462046FFF76AFF284638BD44
:1006F00010B504462046FFF7E9FF10F0800FF9D04F
:1007000010BD38B505460C46C1F38711FFF748FF09
:10071000A10001F0FC012846FFF742FF0021284616
:10072000FFF73EFF38BD38B504460D46FFF774FFAE
:1007300053212046FFF734FF29462046FFF7E1FF0B
:100740002046FFF73DFF2046FFF7D2FF38BD2DE9D9
:10075000F047054614461AB2002A58DD8946A3F52B
:1007600000731FFA83F84FF0D40A00261DE004F549
:10077000007731462846FFF713FF04F8010BBC420F
:10078000F7D109F101091FFA89F92846FFF718FF87
:100790003C4606E02846FFF713FF0FFA88F3002BCC
:1007A00035DDA8F500781FFA88F808F500773FB224
:1007B00049462846FFF7B7FF2846FFF72DFF514669
:1007C0002846FFF7EDFE31462846FFF7E9FE3146A1
:1007D0002846FFF7E5FE31462846FFF7E1FE3146A1
:1007E0002846FFF7DDFEB7F5007FC0DC002FD1DD26
:1007F0000026B04641462846FFF7D2FE04F8010B1A
:100800000136B6B2BE42F5DB2846FFF7D9FE2846D0
:10081000FFF76EFFBDE8F087024B4FF038421A60D9
:10082000704700BFD094FF1F0369D3F8FC00D3F8D2
:10083000F830C01A704770470369D3F8CC21C72A33
:1008400003D90123037100207047D3F8CC21501C39
:10085000C3F8CC01134483F8001101207047FFFF57
:1008600038B504460A4B0360036993F8D021022A85
:1008700001D0204638BDD3F8FC51002DF9D02846D0
:1008800001F084FB0821284605F08EFEF1E700BF49
:10089000187C000038B5054614460369D3F8CC210E
:1008A000C72A03D901230371002038BDD3F8CC2116
:1008B000C2F1C802D3F8CC0103F580731844A242F8
:1008C00002D201232B711446224605F0CDFD2A6980
:1008D000D2F8CC312344C2F8CC312046E5E7FFFF03
:1008E00010B4002202714FF47A7484600273054AD6
:1008F0000260417301EB0111034A02EB41110161F6
:1009000010BC7047187C00001488FF1F10B500232E
:100910000A4C224402E00433102B0DD09E4613F8FB
:1009200004C08445F7D112F803C08C45F3D1034BC2
:100930009E449EF8030000E0002010BDFC7B0000F8
:10094000C3681B7813F0200F79D170B504460D46AB
:10095000836880211970C3681221197090F8D13111
:10096000012B6ED022B9002380F8D031012070BD58
:10097000531EDBB2012B01D90120F8E7CDB9134694
:100980004FF0E0224FF08071C2F80011022B5AD1D3
:10099000D4F8FC317BB1D4F8FC613379102B14D03E
:1009A0000DB3002384F8E631022384F8D03101200E
:1009B000DDE71346EAE7082001F042FB0646002186
:1009C00001F08EFAC4F8FC61E5E7304601F0DEFA8A
:1009D0000821304605F0E8FD0023C4F8FC31012071
:1009E00084F8D001C3E73268938B43F00803938304
:1009F000D4F8FC21137910331549164841F8230027
:100A00001279531103F1382340339B0002F01F0287
:100A1000012101FA02F21A60D4F8FC311A68938BB2
:100A200043F002039383D4F8FC311B7903F1804334
:100A300003F5043300221A7096221A70B1E70020E1
:100A40007047002D9CD0012084F8D0018FE700BFB3
:100A50000082FF1F191E000030B4244BA3FB014C81
:100A60004FEA9C1C4FEA0C2CA3FB02239B09BCFB06
:100A7000F3FC1F4A002352F8044BBCEB042F18DB95
:100A80000133372BF7D15C1E194D55F82420ACEB00
:100A90000222002AB8BF524255F82350ACEB052C75
:100AA000BCF1000FB8BFCCF1000C6245D8BF2346A3
:100AB00001E0002BE7D142680E4CE45C14700C4A54
:100AC00052F82330B1FBF3F3C0F8D8310A4B994206
:100AD00004D3836904221A7030BC70478369074AC3
:100AE000A2FB0121C1F307511970F5E7D34D621044
:100AF000E87A0000C47B0000006CDC02819F5E1677
:100B00002DE9F04704460E4615461F469DF82090F5
:100B10009DF824A0BAF1000F74D0C3681B7813F0BD
:100B2000200F6DD1012229463046FFF7EFFE8046A7
:100B300094F8D231DBB29D426FD174E0BAF1000F6C
:100B400008D094F8D20194F8D411002918BF0221DA
:100B500003F090F9B9F1000F36D14FEA082303F4FE
:100B6000E06343F06403374A02EBC5025268136046
:100B700084F8D25184F8D491022239463046FFF7E6
:100B8000C5FE054694F8D331DBB2BB4200D010BBA2
:100B9000BAF1000F10D1B9F1000F29D12B0203F4E3
:100BA000E06343F06403274A02EBC7025268136014
:100BB00084F8D37184F8D491B8F1000F1ED0281EA8
:100BC00018BF0120BDE8F0874FEA082303F4E06373
:100BD00043F00303C7E7BAF1000FDCD094F8D30168
:100BE00094F8D411002918BF022103F043F9D2E789
:100BF0002B0203F4E06343F00303D4E70020E1E7B2
:100C00000020DFE7012229463046FFF77FFE8046BD
:100C100094F8D231DBB29D429CD0B8F1000F8DD157
:100C2000BAF1000F96D0022239463046FFF76EFE29
:100C3000054694F8D331DBB29F42BDD00028CDD118
:100C4000A6E700BFAC7D0000F0B583B004461046B7
:100C50009E469DF820709DF824209DF828300D4672
:100C600021B92D494E6B46F040064E6384F8D10100
:100C70004FF0000C84F8DDC130BB616920200870A2
:100C800012B994F8D221D2B213B994F8D331DBB2AD
:100C9000002101919DF82C10009129462046FFF774
:100CA0002FFF0C9A1D492046FFF7D6FE9DF83420F1
:100CB00029462046FFF744FE94F8D131D3B9A36802
:100CC00080221A7003B0F0BDC7B961692020087096
:100CD0004FEA4E01C9B220680170E1690F70CFE799
:100CE0004FEA4E0E5FFA8EFE216881F800E07F0029
:100CF000FFB2F2E7A368C0221A70E3E76169282017
:100D000008707745ECD87F00FFB221680F704FEA7A
:100D10004E01CFB2E1E700BF00800440006CDC026E
:100D20002DE9F04F83B007468A4690F8D241E4B2ED
:100D300090F8D361F6B290F8D411002918BF0221BF
:100D4000304603F097F80121204603F063F80121B3
:100D5000204603F08FF84FF00A0B4FF00009A02552
:100D60004FF00108304603F077F898B90BF1FF33E4
:100D700013F0FF0B0ED04946204603F04BF82B46EC
:100D8000013BFDD14146204603F044F82B46013B90
:100D9000FDD1E7E70023019397F8D4310093334660
:100DA000224651463846FFF7ABFEFB681B7813F02E
:100DB0007F0F0BD0BB6800221A70A0231A46013A9D
:100DC000FDD1BA6880211170013BFDD1002387F865
:100DD000DD3103B0BDE8F08F2DE9F04104460F4648
:100DE0001546984603F006F90DB9D4F8005203F001
:100DF00001F90646A3681A7812F0200F12D0B42227
:100E00001A70444B1B78002B7ED194F8D031013BF3
:100E1000DBB2012B4BD9012577E0E268127812F0A2
:100E2000200F07D0002DF8D003F0E4F8821B954284
:100E3000F3D805E0002384F8D131A368B0221A70FA
:100E4000A3681B7813F0200F17D0A3681D7815F046
:100E50002005D6D1062384F8DD31D4F81832B3F159
:100E6000FF3F04D0D4F818320133C4F81832D4F854
:100E7000F831002B49D0984747E039462046FFF724
:100E80004FFFD4F80432B3F1FF3F04D0D4F804325A
:100E90000133C4F80432E3681B7813F0200FD4D177
:100EA000002384F8D131A368B0221A70CDE704F092
:100EB000E7FE27B1012F0CD0174B1B7E01E0164B2C
:100EC0001B7E834224DB0F2806DC012588F80050B6
:100ED0001BE0114B5B7EF4E747B1012F0DD0A0F171
:100EE0001003DBB20C4A137601250EE0A0F11003CB
:100EF000DBB2094A1376012507E0A0F11003DBB24B
:100F0000054A53763D4600E001252846BDE8F081BC
:100F10000125FAE7E894FF1F00E400E003694900B7
:100F200083F8001103690122C3F8CC210023037167
:100F3000026982F8DD3170472DE9F04383B01C4629
:100F400000238DF80730D0F8CC31002B00F0C4809E
:100F5000054616460CB9D0F80042EB6812221A700A
:100F60000DF1070322462846FFF736FF002800F060
:100F7000B38095F8D03123B19DF80720002A00F006
:100F8000A78003F037F88046082385F8DD3185F81F
:100F9000DC61D5F8CC615EB105F1FF0700264FF0AA
:100FA000020935E003F026F8A0EB0800844231D8AE
:100FB00095F8DC31012BAB680CBF8022B0221A708F
:100FC000D5F8CC31B3427BD9012385F8DD31D5F892
:100FD0000832B3F1FF3F04D0D5F808320133C5F829
:100FE0000832D5F8F831002B76D0984774E083F8B2
:100FF00000901CBBEA681378D9B213F0100F24D10B
:1010000011F0010F38D10136D5F8CC31B342CFD928
:10101000002CC7D12B6917F8012F1A70EB681A78CA
:1010200012F0020FE3D1002CF9D002F0E3FFA0EBA5
:1010300008008442F2D8EB6883F8009002F0DAFFEF
:10104000A0EB08008442D5D8B2E7042385F8DD314F
:1010500010231370AB6880221A70D5F81432B3F1E4
:10106000FF3F04D0D5F814320133C5F81432D5F857
:10107000F8318BB398472FE0A6B9022385F8DD310C
:10108000D5F80C32B3F1FF3F04D0D5F80C32013360
:10109000C5F80C32AB6880221A70D5F8F831DBB194
:1010A000984719E0032385F8DD31D5F81032B3F104
:1010B000FF3FEFD0D5F810320133C5F81032E9E721
:1010C000002385F8DD31D5F8E8312BB1984703E0EE
:1010D0005A1ED2B2012A02D903B0BDE8F083082219
:1010E00085F8DD2185F8DC610022C5F8C821022BD6
:1010F00007D0AB68F0221A702B6995F800211A709E
:10110000EAE7D5F8CC31042BF3D9012385F8E63191
:10111000D5F8FC1105F58173D5F8CC21086803607A
:10112000086800230124047143710868C3710868CA
:10113000047243728372C3720868C2F10304C4600C
:101140000868033A92B2C2830968CA82D5F8FC21C2
:10115000296910680161106803754375106883710F
:10116000B1F1804F02D313689B6833B91368002133
:101170000120187259729972D972136800221A7676
:101180005A769A76DA76B4E72DE9F04383B01646BC
:101190009DF828800B9D00228DF80720002B59D048
:1011A0000446C82B53D8C0F8E0310023C0F8F8300B
:1011B000C0F8FC300DB9D0F80052E36812221A7062
:1011C0000DF107032A462046FFF706FE002841D00E
:1011D00094F8D03123B19DF80720002A00F0178140
:1011E00002F008FF0746092384F8DD3184F8DC812A
:1011F0002269730043F00103DBB21370E2681378D5
:1012000013F0020F29D1002DF9D002F0F3FEC31B19
:101210009D42F3D8E36802221A7002F0EBFEC31B72
:101220009D421ED8A36880221A70012384F8DD3104
:10123000D4F80832B3F1FF3F04D0D4F808320133B8
:10124000C4F80832D4F8F83123B1984702E00523F6
:1012500080F8DD3103B0BDE8F08302231370002D68
:10126000DBD1E2681378D9B213F0100F15D111F069
:10127000010F2AD10A2384F8DD31D4F8E031012BA3
:10128000A3680CBFA822A0221A7023691B7800262D
:101290004FF0B0084FF0200958E0042384F8DD3106
:1012A00010231370A36880221A70D4F81432B3F19B
:1012B000FF3F04D0D4F814320133C4F81432D4F808
:1012C000F831002BC6D09847C4E7022384F8DD31FB
:1012D000A36880221A70D4F80C32B3F1FF3F04D017
:1012E000D4F80C320133C4F80C32D4F8F831002BA6
:1012F000B0D09847AEE702231370002D42D1D4F846
:10130000FC30D4F8E0210233934240F03181314681
:10131000A368A8221A70D4F8FC300133D4F8E02175
:10132000934280F00081002900F0288194F8E53193
:10133000002B43D12269D4F8FC30581CC4F8FC00BF
:101340001278234483F8302000295CD1D4F8FC20A3
:10135000D4F8E0319A42BFF47DAF94F8DD31DBB2CE
:101360000A2B7FF477AFE268137813F0020FC2D133
:10137000002DF9D002F03EFEC01B8542F3D8E36891
:1013800002221A7002F036FEC01B85428CBF00217B
:101390000121D4F8FC30D4F8E02102339342B7D0D5
:1013A000854200F2E68094F8E531002B00F0B08031
:1013B000D4F8FC3001339A4240F2958084F8E5611C
:1013C000A36883F8008023691A78D4F8FC30581C8D
:1013D000C4F8FC00234483F8302094F8DC31012B5E
:1013E00000F0B480012384F8DD31D4F80832B3F181
:1013F000FF3F04D0D4F808320133C4F80832D4F8DF
:10140000F83103B19847012384F8E53142E75A1EC9
:10141000D2B2012A3FF61EAF092284F8DD2184F8FA
:10142000DC81022B09D0A368F0221A7022697300B4
:1014300043F00103DBB213700CE7D4F8E031042B66
:10144000F1D9012384F8E631D4F8FC3121691A6816
:10145000116018680022027142711868C271B1F1FE
:10146000804F02D31A68926832B91A6800210120AD
:10147000107251729172D1721A68002313735373F0
:101480009373D373D4F8FC1104F13000D4F8E02145
:101490000D68286108680125057543750868837122
:1014A0000868057243728372C3720B68A81A986148
:1014B0000868531E9BB2C3830A68D382B3E784F8DB
:1014C000E561A36883F8008023691A78D4F8FC30BA
:1014D000581CC4F8FC00234483F8302094F8DC3115
:1014E000012B3CD132E084F8E561A36883F80080E9
:1014F00023691A78D4F8FC30581CC4F8FC00234443
:1015000083F8302094F8DC31012B7FF46BAF1DE0C1
:10151000A368A8221A70D4F8FC300133D4F8E02173
:101520009342FFF403AF84F8E561A36883F8008079
:1015300023691A78D4F8FC30581CC4F8FC00234402
:1015400083F8302094F8DC31012B05D14B46013B68
:10155000FDD1A36880221A7000297FF443AF84F87C
:10156000DD61D4F8EC31002B3FF4F0AE9847EDE6A6
:101570003146D4F8FC3001339342A0D22269D4F82A
:10158000FC30591CC4F8FC101278234483F8302036
:10159000DCE60246036993F8DD31D8B2013B052B46
:1015A00008D8DFE803F0030D0D0D0C05042070478B
:1015B000042070471079003818BF012070470120BF
:1015C000704790F8DD01C0B207288CBF00200120D1
:1015D000704770B50446154602F00CFD0DB9D4F8FD
:1015E000005202F007FD064694F8DD31DBB2072B0E
:1015F0001BD9002DF8D002F0FDFC801B8542F3D8EA
:1016000002F0F8FC861BB54211D894F8D031022BB9
:101610000DD194F8E63153B194F8DD31DBB2072BEC
:10162000FAD8012384F8DD3101E0002DE8D194F8E7
:10163000DD31DBB2072B84BF012384F8DD31802349
:10164000013BFDD194F8DD01B0FA80F0400970BD96
:10165000F8B506460C4615461A46069F3B462946EF
:101660002046FFF769FC3A4629462046FFF7B1FFBE
:101670003046FFF78EFFF8BD30B583B004461846FC
:101680000BB903B030BD0D46079B01939DF8183090
:10169000009303462046FFF777FD079A2946204628
:1016A000FFF797FF10B1D4F8FC00EAE70020E8E765
:1016B000D0F8F820D0F8FC309A4208D2D0F8F830B0
:1016C0005A1CC0F8F820184490F8300070474FF0CA
:1016D000FF30704708B50069FFF7EAFF08BDD0F892
:1016E000F820D0F8FC309A423DBFD0F8F830C0184E
:1016F00090F830004FF0FF30704708B50069FFF7F1
:10170000EEFF08BD38B50446B54A13780133DBB2A5
:101710001370C2681578EDB281680B78D8B213F0F7
:10172000200F00F0CB8210F0100F00F0B98194F878
:10173000E631DBB2022B21D094F8E631DBB2032B89
:101740001CD094F8DD31DBB2082B00F0948094F8C3
:10175000DD31DBB2092B00F0218194F8DD31DBB201
:10176000012B00F07F8180230B70E36802221A7046
:101770009B4A1378013BDBB213702EE3D4F8FC11C3
:101780000B689B8B13F0800F11D194F8E631DBB21C
:10179000032B1ED0934BD86A0A790123934003424E
:1017A00031D18F4A1378013BDBB2137015E394F803
:1017B000E631DBB2022BE8D10A798A4BDA77A368EB
:1017C000F0221A70032384F8E631E36802221A70CB
:1017D000E7E7137813F0800FFBD00A79814B1A7773
:1017E000002384F8E631D4F8CC31013BC4F8C83189
:1017F000D4F8C8312269234493F800311370E368A8
:1018000002221A70CDE7774B9A77D4F8FC2112792F
:10181000DA77002384F8E631072384F8DD31D4F841
:101820001C32B3F1FF3F04D0D4F81C320133C4F8AA
:101830001C3215F0100F12D0042384F8DD31D4F8D7
:101840001432B3F1FF3F04D0D4F814320133C4F89A
:101850001432E36810221A700023C4F8C831A36858
:1018600080221A70E36802221A70D4F8F831002B33
:1018700097D0984795E715F0100F23D0002384F8F0
:10188000E631042184F8DD1110211170A268802155
:101890001170C4F8C831E36802221A70D4F8143207
:1018A000B3F1FF3F04D0D4F814320133C4F814323A
:1018B000D4F8F83103B19847494A1378013BDBB2B9
:1018C00013708AE215F0010F2BD0002384F8E63163
:1018D000D4F8C831BBB9022384F8DD31D4F80C3216
:1018E000B3F1FF3F04D0D4F80C320133C4F80C320A
:1018F00080230B70E36802221A70D4F8F831002BB1
:10190000DAD09847D8E7032384F8DD31D4F81032D1
:10191000B3F1FF3FECD0D4F810320133C4F81032E9
:10192000E6E7D4F8C8310133C4F8C831D4F8CC2183
:10193000934212D3002384F8DD3194F8DC31012B7B
:101940000CBF8023B0230B70E36802221A70D4F816
:10195000E831002BB0D09847AEE794F8E631DBB21F
:10196000012B0AD0D4F8C8312269234493F80031FE
:101970001370E36802221A709EE7022384F8E631AE
:10198000F1220A70D4F8FC211179164AD176226925
:1019900094F801111170E26813708DE715F0100FC3
:1019A00022D0042384F8DD3110231370A368802231
:1019B0001A70E36802221A70D4F81432B3F1FF3FB0
:1019C00004D0D4F814320133C4F81432D4F8F83106
:1019D00003B19847024A1378013BDBB21370FCE174
:1019E000E894FF1F0080004015F0010F16D002237D
:1019F00084F8DD3180220A70E2681370D4F80C326A
:101A0000B3F1FF3F04D0D4F80C320133C4F80C32E8
:101A1000D4F8F831002BDDD09847DBE794F8E631B5
:101A2000DBB2012B0FD00A2384F8DD31D4F8E0318A
:101A3000012B0CBFE823E0230B7023691B78E368BC
:101A400002221A70C6E7022384F8E631E1220A7006
:101A5000D4F8FC211179974AD17622691278E2688C
:101A60001370B7E794F8DC31012B0CBF8023B0234F
:101A70000B70E36802221A70D4F80832B3F1FF3F0A
:101A800004D0D4F808320133C4F80832D4F8F8315D
:101A900003B19847884A1378013BDBB213709CE18D
:101AA00094F8E631DBB2022B3CD094F8E631DBB29D
:101AB000032B37D0D4F8FC300233D4F8E021934222
:101AC00007D094F8DD31DBB2012B04D194F8E53175
:101AD0000BB9E8230B70D4F8FC300133D4F8E021C3
:101AE000934280F0A08094F8DD31DBB2012B00F04E
:101AF00095802269D4F8FC30591CC4F8FC10127887
:101B0000234483F83020E36802221A7094F8DD3110
:101B1000DBB2012B00F0C580674A1378013BDBB2D2
:101B200013705AE1D4F8FC2113689B8B13F0800FDB
:101B300011D194F8E631DBB2032B1ED05D4BD96A8C
:101B40001279012393400B4246D15B4A1378013B43
:101B5000DBB2137041E194F8E631DBB2022BE8D13D
:101B60001279544BDA77A368E8221A70032384F8B9
:101B7000E631E36802221A70E7E712794D4B1A77D3
:101B8000002384F8E631A368B0221A70D4F8E0315B
:101B9000013BC4F8FC302269D4F8FC30591CC4F86D
:101BA000FC101278234483F8302094F8DC31012BA8
:101BB0000BD0E36802221A70002384F8DD31D4F8D8
:101BC000EC31002BC1D09847BFE72023013BFDD16A
:101BD000A36880221A70ECE7364B9A77D4F8FC2180
:101BE0001279DA77002384F8E631072384F8DD31AF
:101BF000A36880221A70E36802221A70D4F81C329B
:101C0000B3F1FF3F04D0D4F81C320133C4F81C32C6
:101C1000D4F8F831002B98D0984796E794F8E5313E
:101C2000002B3FF466AF002384F8E531A368B022AF
:101C30001A702269D4F8FC30591CC4F8FC101278D0
:101C4000234483F8302094F8DC31012B11D0E36871
:101C500002221A7094F8DD31DBB2012B10D0002380
:101C600084F8DD31D4F8EC31002B3FF44FAF9847C6
:101C70004CE72023013BFDD1A36880221A70E6E7E0
:101C8000D4F80832B3F1FF3F04D0D4F8083201335E
:101C9000C4F80832D4F8F831002B3FF437AF984736
:101CA00034E794F8E531002B7FF436AF012384F854
:101CB000E53131E700800040E894FF1F15F0100F78
:101CC0003CD01023137015F0400F2ED094F8DD3166
:101CD000DBB20C2B4FD015F0040F57D00B2384F838
:101CE000DD310023C4F8CC31A368D0221A702369F7
:101CF0001B785B0884F8DE31D4F8F43103B19847DF
:101D0000D4F8CC310BB984F80031236994F8002160
:101D10001A700123C4F8C831E36802221A703C4AE1
:101D20001378013BDBB2137057E0E36802221A70AC
:101D3000374A1378013BDBB213704EE015F0400FC9
:101D4000C4D110F0100F40D015F0010535D1D4F8F2
:101D5000C821D4F8CC319A4207D2D4F8C8315A1CE1
:101D6000C4F8C821234493F8005123691D70A36867
:101D7000D0221A702EE0D4F8F031002BABD0002224
:101D8000C4F8F820D4F8FC009847A4E7002584F8AC
:101D9000E45194F8D30103221E4902F0ABF80C235E
:101DA00084F8DD31C4F8FC50A368C0221A7023699E
:101DB0001B785B0884F8DE31AEE7C0230B70236923
:101DC0001B78002384F8DD3104E094F8DD31DBB2C8
:101DD0000C2B03D0E36802221A7038BD002384F86C
:101DE000E43194F8D30103220A4902F083F823690D
:101DF0001B78DBB2D4F8FC20C72AEBD8D4F8FC203F
:101E0000511CC4F8FC10224482F83030E2E700BFD5
:101E1000E894FF1F7D1E000008B500210148FFF770
:101E200071FC08BD1488FF1F10B50446C3681B78F9
:101E300013F0200F10D090F8E4310133DBB280F8BA
:101E4000E431012B03D890F8D131012B03D094F861
:101E5000D30101F08BFF10BD002380F8DD3190F835
:101E6000D30101F083FFD4F8F031002BF3D000222E
:101E7000C4F8F820D4F8FC009847ECE708B5002136
:101E80000148FFF7D1FF08BD1488FF1F10B5054CAE
:101E900000212046FEF724FD034A0449204604F0B1
:101EA0007DFB10BDD494FF1F1088FF1F6108000048
:101EB00010B5044600F0F0FA204610BD08B50548FC
:101EC0000023036080230371034A044904F066FB86
:101ED00008BD00BFEC94FF1F1088FF1FB11E00005B
:101EE00072B689B902687AB103790F2B0CD82549EB
:101EF0000988194111F0010F06D003F1007303F5B1
:101F00009063B2EB431F10D01E4B1988002341FA97
:101F100003F212F0010F0AD00133102BF7D162B691
:101F20000023036010230371704762B6704710B43A
:101F300001229A401143134A118062B6D9B201714D
:101F4000114A146C44F002041464D46B44F002048B
:101F5000D463A2F580228224146091769177117661
:101F6000D17703F1007303F590635B0103600022F6
:101F70001A605A609A60DA601A615A619A61DA618D
:101F800010BC7047F694FF1F0080044003790F2BAC
:101F900010D8094A937672B608490279012303FAE8
:101FA00002F20B8823EA02030B8062B6102303714E
:101FB00000230360704700BF00800040F694FF1FBD
:101FC000F8B54FF0E022D2F8FC3D43F08073C2F840
:101FD000FC3D174B1A6842F001021A605E68154B0F
:101FE0001C68B4B1124D01E0646994B1237A002BEE
:101FF000FAD06F6823681B68204698476B68DB1B24
:10200000C3F30F12A280E188B1EB131F38BFE28047
:10201000EAE7074B5B689E1BC6F30F13064A138063
:10202000064A1288B2EB161F3CBF044A1380F8BD63
:10203000001000E0F894FF1FFC94FF1FFE94FF1FA8
:1020400008B504F0D9FF08BD08B504F0DDFF08BDF0
:1020500008B503681B68C9B2984708BD08B503688E
:102060001B68C9B2984708BD08B503681B68C9B2A8
:10207000984708BD08B503681B68C9B2984708BDF2
:1020800008B5084603F07CFB012008BD08B50846EA
:1020900003F076FB012008BD38B50D46084605F073
:1020A000EFFA04460146284603F0C2FB204638BD3D
:1020B00010B508461446114603F0BAFB204610BD81
:1020C00008B503F027FC08BD08B503F09BFC08BD6C
:1020D00008B5084603F02AFB003818BF012008BDE8
:1020E00008B5084603F000FB003818BF012008BD02
:1020F00008B50846114603F08FFA08BD08B5084632
:1021000003F0C6FA08BD08B5084603F06BFA08BD2F
:1021100008B503F031FA08BD08B54B0803F1376381
:1021200003F5D833B3FBF1F003F090F908BD10B517
:1021300014464B0803F1376303F5D833B3FBF1F0D2
:1021400003F084F9204603F0E7F910BD08B503F069
:10215000D3FB08BD08B503F03BFC08BD08B503F090
:10216000FBFB08BD08B503F0E7FB08BD7047FFFFA8
:10217000044B00221A714FF47A7199601A73024A63
:102180001A6070470095FF1F387C000008B503688F
:102190001B68C9B2984708BD08B503681B68C9B277
:1021A000984708BD08B503681B68C9B2984708BDC1
:1021B00008B503681B68C9B2984708BD08B508464A
:1021C00002F048F9012008BD08B5084602F042F9BE
:1021D000012008BD38B50D46084605F051FA044601
:1021E0000146284602F07CF9204638BD10B5084665
:1021F0001446114602F074F9204610BD08B502F0ED
:10220000D1F908BD08B502F011FA08BD08B50846B5
:1022100002F0FEF8003818BF012008BD08B50846D6
:1022200002F0D4F8003818BF012008BD08B50846F0
:10223000114602F061F808BD08B5084602F098F8AA
:1022400008BD08B5084602F03DF808BD08B501F024
:10225000DFFF08BD08B54B0803F1376303F5D8333A
:10226000B3FBF1F001F03EFF08BD10B514464B087A
:1022700003F1376303F5D833B3FBF1F001F032FF1C
:10228000204601F095FF10BD08B502F07DF908BDAC
:1022900008B502F0B7F908BD08B502F09BF908BD12
:1022A00008B502F08DF908BD7047FFFF044B00220E
:1022B0001A714FF47A7199601A73024A1A60704762
:1022C0001095FF1F987C000008B503681B68C9B211
:1022D000984708BD08B503681B68C9B2984708BD90
:1022E00008B503681B68C9B2984708BD08B50368FC
:1022F0001B68C9B2984708BD08B5084603F060FFDF
:10230000012008BD08B5084603F05AFF012008BDAA
:1023100038B50D46084605F0B3F90446014628468F
:1023200003F094FF204638BD10B508461446114608
:1023300003F08CFF204610BD08B503F0A3FF08BDD5
:1023400008B503F0E3FF08BD08B5084603F016FF23
:10235000003818BF012008BD08B5084603F0ECFEA0
:10236000003818BF012008BD08B50846114603F023
:10237000B5FE08BD08B5084603F0DCFE08BD08B58B
:10238000084603F091FE08BD08B503F057FE08BDEE
:1023900008B54B0803F1B76303F55843B3FBF1F0FD
:1023A00003F0DAFD08BD10B514464B0803F1B7631E
:1023B00003F55843B3FBF1F003F0CEFD204603F0E4
:1023C0000DFE10BD08B503F04FFF08BD08B503F0C2
:1023D00089FF08BD08B503F06DFF08BD08B503F01F
:1023E0005FFF08BD7047FFFF044B00221A714FF4D6
:1023F0007A7199601A73024A1A6070472095FF1F1C
:10240000F87C00007047FFFF30B4036803B300247A
:102410009C6003680124DC600468194B23441B1191
:10242000184D45F82310226002680321916001795C
:10243000154A995444335A1102F13822403292001D
:1024400003F01F03012000FA03F3136030BC704750
:102450000E4CE36B43F40003E3630D4B01241C605B
:1024600003F5807303600B4D03689C68002CD3D088
:1024700010330360AB42F7D9002303601846E5E749
:10248000008FFCBF348AFF1F44E400E0008004405A
:10249000007003403F710340026862B110B4064B04
:1024A00013441B110549064C41F823400023936057
:1024B000036010BC70477047008FFCBF348AFF1F59
:1024C0000524000008B5044B0122C3F80C21034B7E
:1024D0001B68984708BD00BF00700340348AFF1F87
:1024E00008B5044B0122C3F81C21034B5B689847D5
:1024F00008BD00BF00700340348AFF1F08B5044BBD
:102500000122C3F82C21034B9B68984708BD00BFEC
:1025100000700340348AFF1F08B5044B0122C3F842
:102520003C21034BDB68984708BD00BF00700340A7
:10253000348AFF1F08B503F01BFC08BD08B503F083
:10254000B9FC08BD08B503F0E7FB08BD08B503F00A
:10255000B7FB08BD08B503F0FDFB08BD08B508468C
:10256000114603F021FC08BD08B5084603F096FCAF
:1025700008BD7047044B00221A714FF47A719960BC
:102580001A73024A1A6070473095FF1F587D000089
:1025900008B500F0ABFA00F0B3FA00F001F8FAE782
:1025A00008B5114B1B7803B108BD0F4B01221A70FF
:1025B00003F0D0FB60B903F0BFF960B902F000F896
:1025C00060B903F06DFE60B9074B00221A70EBE7AB
:1025D000FFF7CFFFEFE7FFF7C9FDEFE7FFF764FE77
:1025E000EFE7FFF7FFFEEFE74095FF1F1C4AD36BB5
:1025F00043F48053D3631B4B1B4A1A601B4ADA60B7
:1026000002F180421A611A4A1A601A4B1B7813F0C1
:10261000010F16D1184B4FF410729A61154B1B78AD
:1026200013F0020F12D1144B4FF40072DA61114B08
:102630001B7813F0040F0ED10F4B4FF410725A6138
:1026400070470E4B4FF400729A60E7E70B4B4FF464
:102650000072DA60EBE7094B4FF400725A60704782
:102660000080044000C0024001401F0001100038FB
:1026700000001F80F494FF1F00B0044000C004401D
:1026800082B0034600F1900C0021102219745A61A7
:102690009A61D96110336345F8D10023C0F8A030A6
:1026A0004FF0FF338360034B1B680193019B436032
:1026B00002B0704794A9FF1F007B012814BF0020BF
:1026C0000120704710B4017B013918BF012101734B
:1026D0000023037003469030002419745A699A61EC
:1026E000DC6110338342F8D110BC7047037B012BAF
:1026F00006D100EB0110037C013B18BF01230374DA
:102700007047037B012B05D1D0F8A03000EB0310FC
:1027100041617047D0F8A03000EB031252698A4241
:10272000A4BF00EB031081617047D0F8A02000EB3C
:102730000213DB69013300EB021149699942D8BFEA
:10274000002300EB0210C3617047FFFF8368B3F101
:10275000FF3F00D0704784B0037843B90123037072
:10276000094B1B680193019B436004B07047064A04
:1027700013680393039B41685B1A83601368029399
:10278000029B4360F1E700BF94A9FF1F8368B3F188
:10279000FF3F14D010B582B00446094A1268009277
:1027A000009A4168521A934201D902B010BDFFF756
:1027B000BCFF034B1B680193019B6360F5E7704707
:1027C00094A9FF1F2DE9F04105460646002427463F
:1027D0004FF0640810E02846FFF76EFFB8B1327C76
:1027E000012A18BF032243462146284600F096F8E6
:1027F00001341036092C0CD0D5F8A030A342EAD011
:102800003B463A462146284600F088F8F0E7022287
:10281000E9E7BDE8F0812DE9F843054600244FF0D3
:102820004B0827464FF0280913E02846FFF744FFDE
:10283000E8B905EB0616B269A242CCBF28221422E1
:1028400000E042462146284600F084F80134202C5E
:102850000FD0D5F8A06005EB0613DB69A342F0D0DA
:1028600005EB06135B69A342DFDC3A46EAE74A461A
:10287000E8E7BDE8F88310B50446FFF701FF2046FE
:10288000FFF7A0FF2046FFF7C6FF10BD10B50446B6
:10289000FFF77CFF2046FFF795FF2046FFF7BBFFC1
:1028A00010BD38B504460D46D0F8A0308B4202D09A
:1028B000C4F8A05038BDFFF719FFF9E7704770471B
:1028C00010B5044640F26463994211DD90F8A430DB
:1028D000012B14D1FFF7F0FE30B12046FFF736FF91
:1028E000002384F8A4300AE02046FFF71EFFF7E734
:1028F00040F263639942DCBF012380F8A43010BD2D
:10290000012900D0704708B5FFF7DCFE08BD70470D
:1029100008B50131FFF7F5FE08BD704700B583B07B
:102920001046C9B29C4673B1003A18BF01225FFA43
:102930008CF30093054B33F81030054800F09AF9FA
:1029400003B05DF804FB0022F1E700BF747D0000D6
:1029500074A6FF1F08B5C2EB4213074880FB03C0F3
:10296000DB17C3EB6013DBB2003A18BF0122C9B218
:10297000024800F027FA08BD1F85EB5174A6FF1F1F
:1029800008B501460148FFF78CFF08BD448AFF1FC8
:1029900008B501460148FFF791FF08BD448AFF1FB3
:1029A00008B500290CBF4FF0FF3201220146024852
:1029B000FFF785FF08BD00BF448AFF1F08B5014629
:1029C0000148FFF77DFF08BD448AFF1F08B5014697
:1029D0000148FFF795FF08BD448AFF1F08B501466F
:1029E0000148FFF794FF08BD448AFF1F08B5014660
:1029F0000148FFF78DFF08BD448AFF1F08B5014657
:102A00000148FFF78AFF08BD448AFF1F70B54FF4E5
:102A1000FA7001F00FFB1A4801F088F9194E3046A0
:102A200000F08CF87421184800F0EAFA00F0FAFF80
:102A3000164D1749284600F039FD1649284600F082
:102A400037FD154C1549204600F0B6FD14492046C7
:102A500000F0B4FD134801F04BF9134801F04EF9B2
:102A6000284600F085FC204600F024FD01F00CF91A
:102A70000E49304600F084F80D4800F039FE70BD74
:102A800088A9FF1F6095FF1F74A6FF1FE0A7FF1F07
:102A900081290000912900003CA8FF1FCD290000DA
:102AA000DD290000ED290000FD290000BD290000FE
:102AB000A129000010B5094800F082FC084800F088
:102AC00011FD01F00DF9074C204600F087F9204672
:102AD00000F088FB044800F03DF810BDE0A7FF1FA0
:102AE0003CA8FF1F74A6FF1F6095FF1F08B5FFF7E6
:102AF0008DFF0248FFF7BFFE08BD00BF448AFF1FDD
:102B000008B5FFF7D7FF0248FFF7C0FE08BD00BFBA
:102B1000448AFF1F10B5054C204600F00DF8044A0A
:102B20000449204603F03AFD10BD00BF6095FF1F29
:102B30001088FF1F3B2B00007047704708B500F05E
:102B4000D7FE0249024801F0FDF808BD6C95FF1F51
:102B500088A9FF1F08B5002000F046FF08B9012032
:102B600008BD002000F02EFF034B1880034B1B68AC
:102B7000002BF4D09847F2E76895FF1F6495FF1F7C
:102B8000014B1960704700BF6495FF1F2DE9F041AC
:102B90000446224D0FCDC4F80200C4F80610C4F854
:102BA0000A20C4F80E300FCDC4F81200C4F8161075
:102BB000C4F81A20C4F81E30002584F8B25004F17D
:102BC000B308C4F8B350C4F8B750C4F8BB50C4F845
:102BD000BF50A4F8C35004F1C507902632462946D9
:102BE000384604F0C9FCC4F85551C4F85951C4F82A
:102BF0005D5184F861513246294604F1220004F007
:102C0000BBFC12222946404604F0B6FC3246294657
:102C1000384604F0B1FC2046BDE8F0817C7D000020
:102C20001F2B26D800B500EB010C034493F802E0FB
:102C30008CF8C5E082B100EBD10201F0070101235D
:102C400003FA01F192F8B330194382F8B31001236B
:102C500080F8B2305DF804FB00EBD10201F007010F
:102C600001238B4092F8B31021EA030182F8B310DC
:102C7000EDE770472DE9F04782460F4614461D46A2
:102C80009DF8200003F0E4FD00224D4B03F074FF9B
:102C900080468946280A04F02DF903F0EBFD4246F0
:102CA0004B4603F03FFE04F04FF8C6B2E8B204F022
:102CB00021F903F0DFFD42464B4603F033FE04F0FA
:102CC00043F8002E14BF2246324610F0FF0508BF1D
:102CD0002C46082F11D8DFE807F005121E2A3642CD
:102CE0004E5A6600334678215046FFF799FF2B462F
:102CF000224668215046FFF793FFBDE8F087334630
:102D000079215046FFF78CFF2B4622466921504619
:102D1000FFF786FFF1E733467A215046FFF780FF41
:102D20002B4622466A215046FFF77AFFE5E73346F5
:102D30007B215046FFF774FF2B4622466B215046FD
:102D4000FFF76EFFD9E733467C215046FFF768FF57
:102D50002B4622466C215046FFF762FFCDE73346F3
:102D60007D215046FFF75CFF2B4622466D215046E1
:102D7000FFF756FFC1E733467E215046FFF750FF6D
:102D80002B4622465D215046FFF74AFFB5E7334602
:102D90006E215046FFF744FF2B4622465E215046E7
:102DA000FFF73EFFA9E7334629215046FFF738FFDA
:102DB0002B46224639215046FFF732FF9DE700BFE0
:102DC0000000594008B54FEAD10C01F0070101EBB2
:102DD0000C11C9B2FFF724FF08BDFFFF1B4B1B6995
:102DE00093F8DD31DBB2082B03D0194B00221A60B7
:102DF0007047174A136801331360642B24D910B548
:102E000086B0144B5A6B22F040025A634FF4A07202
:102E1000013AFDD15A6B42F040025A630B4801233C
:102E200005930D4B04930024039412230293132360
:102E30000193009423462246417B0069FDF704FF7D
:102E4000034B1C6006B010BD704700BFD494FF1F39
:102E500070A6FF1F008004403057050008B50248E7
:102E6000FFF794FE08BD00BF74A6FF1FF0B583B046
:102E700006460D461746184C01782046FEF74EF8D8
:102E8000FD212046FDF7D8FC39462046FDF7D4FC4D
:102E9000002700970123627B21692046FEF7D8FBBB
:102EA00031782046FEF73AF839462046FDF7C4FC53
:102EB0006C1E1135084E14F8011F3046FDF7BCFC9E
:102EC000AC42F8D10448002300930123427B0169FE
:102ED000FEF7BEFB03B0F0BDD494FF1F30B583B046
:102EE0000D460B4C01782046FEF718F8FD212046D0
:102EF000FDF7A2FC29462046FDF79EFC0023009327
:102F00000123627B21692046FEF7A2FB03B030BD9E
:102F1000D494FF1F2DE9F04383B080464178FFF73A
:102F2000DDFF2427124D4FF01209002698F80010FB
:102F30002846FDF7F3FF2B681B683946284698475B
:102F40004C4631462846FDF777FC631E13F0FF041C
:102F5000F7D1009601236A7B29692846FEF778FBA2
:102F60001837FFB2B42FE1D103B0BDE8F08300BF42
:102F7000D494FF1F2DE9F04383B005460E469046DA
:102F80001F46194C01782046FDF7C8FFFD21204659
:102F9000FDF752FC31462046FDF74EFC4FF000098C
:102FA000CDF800900123627B21692046FEF750FB9B
:102FB00029782046FDF7B2FF41462046FDF73CFC4C
:102FC00039462046FDF738FCCDF800900123627B9E
:102FD00021692046FEF73CFB0B2E04BF454485F8D3
:102FE000557103B0BDE8F083D494FF1F08B50829DC
:102FF00034BF0B46002301220B21FFF7BBFF08BDA6
:103000002DE9F04387B004460F46DFF8D080012653
:103010000596334B0493002503954FF01209CDF824
:1030200008901323019300952B462A4698F80D101B
:10303000D8F81000FDF708FED8F810304FF47A7277
:10304000C3F80022277065702B460A220B21204608
:10305000FFF790FF0A2000F0EDFF33460A220B2114
:103060002046FFF787FF2B462A460B212046FFF715
:1030700081FF61782046FFF7B9FF04F1B30762785A
:1030800039462046FFF7F2FE2046FFF743FF902225
:10309000294604F1C50004F06FFA4A46294638462D
:1030A00004F06AFA84F8B460FF2384F8C43084F82A
:1030B000CD3084F84D3184F84E3184F84F3184F8A6
:1030C000503184F8513184F8523184F8533184F806
:1030D000543184F8B26007B0BDE8F083D494FF1F88
:1030E00030570500F0B583B005460E461746294C0B
:1030F0002069FEF766FA0028FAD0264C2978204687
:10310000FDF70CFFFD212046FDF796FB31462046DA
:10311000FDF792FB002600960123627B2169204681
:10312000FEF796FA29782046FDF7F8FE3946204644
:10313000FDF782FB00960123627B21692046FEF7A2
:1031400087FA0196012300932A78617B2069FEF7B4
:1031500093FA2069D0F8FC20D0F8F8309A4216D0C3
:10316000FEF7A6FA03462069D0F8FC10D0F8F82044
:103170009142F5D1DCB2074D0023009301236A7B15
:1031800001462846FEF764FA204603B0F0BD00244D
:10319000F1E700BFD494FF1F38B505460C460A4638
:1031A0000B21FFF79FFF2B1993F85531984201D15E
:1031B000002038BD22460B212846FFF7DBFE012008
:1031C000F7E770B506460124002502E00135013419
:1031D000E4B2E9B20729F9D03046FFF7DDFF0D2C44
:1031E000F4D970BDF0B583B007462C4B1869FEF7D3
:1031F000E8F910B197F8B2300BB903B0F0BD38461A
:10320000FFF7DFFF254D39782846FDF787FEFD21C2
:103210002846FDF711FB79782846FDF70DFB0026BF
:10322000009601236A7B29692846FEF711FA3C467D
:1032300014F8B21B2846FDF771FE31462846FDF70B
:10324000FBFA07F1C40614F8011F2846FDF7F4FA4B
:10325000B442F8D11224114D00262B681B68314668
:1032600028469847631E13F0FF04F6D107F1C40403
:1032700007F5AA76094D14F8011F2846FDF7DCFA78
:10328000B442F8D1054800230122417B0069FDF7D3
:1032900053FE002387F8B230AFE700BFD494FF1F7E
:1032A00038B504460D460021807900F0B3FD0021B9
:1032B000207900F0AFFD2946607900F0ABFD0121D7
:1032C000207900F0A7FD0121A07900F0A3FD38BD11
:1032D000F8B505460021807900F09CFD0824002601
:1032E00001273146287900F095FD3146687900F0D4
:1032F00091FD3946287900F08DFD631E13F0FF041F
:10330000EFD10121A87900F085FDF8BD10B5044684
:10331000084621716271A371012100F0ABFD01210A
:10332000607900F0A7FD0121A07900F0A3FD012143
:10333000207900F06FFD0021A07900F06BFD2046A0
:10334000FFF7C6FF10BD70B505460121FFF7A8FFC6
:10335000002426462B68E0B2984731462846FFF7FE
:103360009FFF0134082CF5D170BD01607047FFFF4D
:103370002DE9F04383B0061F00F123050024DFF898
:103380003C904FF0A0081927D9F800300193019B19
:1033900046F8043FE0B200F06FFB4346013BFDD12D
:1033A000384600F059FD05F8010F012385F8243057
:1033B0001C44092CE8D103B0BDE8F08394A9FF1F99
:1033C0002DE9F04F85B0824600F12305064600271F
:1033D000DFF8D090DFF8D0B032E0D9F800300093B9
:1033E000009B3360A37A62789A424FD0D9F80030BC
:1033F0000193019B32689B1A642B1AD9D9F80030CB
:103400000293029B9A1A5A4505D9D9F800300393C2
:10341000039B653B33600023E37494F8253043B984
:10342000012384F8253000232377DAF8583040460A
:103430009847A37A05F8013F01370436092F2ED0AB
:103440005FFA87F872B6404600F016FBA023013BF6
:10345000FDD1192000F000FD2C46A87262B6AB7AAF
:1034600013B16A789A4214D00023E374237F002BAF
:10347000B3D101232377002384F82530DAF85430C0
:1034800040469847E37C002BACD1A6E7002BADD09B
:1034900002E0EB7C002BA0D00123E374A6E705B08B
:1034A000BDE8F08F94A9FF1F00286BEE41657047BF
:1034B0008165704710B483B0031F00F11502083016
:1034C000074C4FF0010C21680191019943F8041F4A
:1034D00002F801CB8342F6D103B010BC704700BFA5
:1034E00094A9FF1F2DE9F04F85B0824600F10C042E
:1034F000054600274FF0190BDFF8B4802AE0A378C7
:10350000002B48D00123B370D8F800300193019B01
:103510002A689B1A0A2B19D9D8F800300293029B0B
:103520009A1A244B9A4205D9D8F800300393039B8A
:103530000B3B2B600023B370337A3BB9012333720A
:1035400000237371DAF81C30484698470137043578
:10355000032F2AD05FFA87F972B609F10900C0B2C9
:1035600000F08AFA584600F077FC04F8010B62B6C6
:10357000264614F8013C002BC1D00023A3706379C8
:103580004BB90123637100232372DAF818304846DF
:103590009847A37823B9D8F800300093009B2B609C
:1035A00016F8013C002BAFD1ACE705B0BDE8F08FB9
:1035B00094A9FF1F00286BEE81617047C1617047BD
:1035C00082B00C4B0C4803F1240102680092009A6F
:1035D00043F8042B8B42F8D1084B074803F10C0148
:1035E00002680192019A43F8042B8B42F8D102B091
:1035F000704700BFE0A7FF1F94A9FF1F3CA8FF1F53
:103600002DE9F047DFF8D890DFF8D8800024364D58
:10361000022719F8010F00F052FA15F81400C6B28B
:10362000384600F019FC40EA4600C0B205F8140024
:1036300018F8010F00F043FA05EB440670785FFAC2
:1036400080FA384600F008FC40EA4A00C0B27070C8
:103650000134082CDDD10E2000F00EFA224C207C23
:10366000C5B2192000F0F8FB40EA4500C0B2207452
:103670000F2000F001FA607CC5B2192000F0ECFBCD
:1036800040EA4500C0B260740024174D174E27462B
:103690000CE005EB44035B7813F0030F0CD13368A7
:1036A0000121E0B298470134092C16D015F81430E6
:1036B00003F00303022BECD005EB44035B7803F02B
:1036C0000303022BEFD115F8143013F0030FEAD1E6
:1036D00033683946E0B29847E5E7BDE8F08700BFB8
:1036E0009B7D0000A37D000068A8FF1F5CA8FF1F52
:1036F00008B5044B18604BF67F3203490348FEF7C8
:1037000083FE08BD5CA8FF1F0136000060A8FF1FF4
:1037100008B505480023036080230371034A044968
:1037200002F03CFF08BD00BF60A8FF1F1088FF1F0C
:10373000B11E000010B504460021072000F06AFB0E
:10374000174B4FF00042DA62640044F00104E4B227
:103750005C631A46D36A002BFCDA114B9A6B4FF06C
:103760000042DA6200225A631A46D36A002BFCDA5E
:103770000B4B9C6B2402A1B24FF00042DA62002294
:103780005A631A46D36A002BFCDA054B9C6BE4B2F1
:103790000C430121072000F03DFB204610BD00BF77
:1037A00000C0024038B504460D460021072000F055
:1037B00031FBFEF71BFF474B1B78002B31D072B655
:1037C000444B1B7813F0010F0AD04FF0E022D2F8DF
:1037D0008031414909680B4040490B60C2F8803193
:1037E0003C4B1B7813F0020F0AD04FF0E022D2F8C6
:1037F0008431394949680B4038494B60C2F88431FB
:10380000344B1B7813F0040F0AD04FF0E022D2F8AB
:103810008831314989680B4030498B60C2F8883162
:1038200062B62F4BDA682F4B9A4209D02C4B2E4AA6
:103830001A602C4ADA6002F180421A612B4A1A603F
:10384000274B4FF00042DA626400E4B25C631A4630
:10385000D36A002BFCDA224B9A6B4FF00042DA62FB
:103860002A0A5A631A46D36A002BFCDA1C4B9A6B5D
:103870004FF00042DA62EDB25D631A46D36A002B64
:10388000FCDA174B9B6B0121072000F0C3FA114BA8
:103890001B78F3B113F0010F05D0104B1A684FF0ED
:1038A000E023C3F800210B4B1B7813F0020F05D067
:1038B0000A4B5A684FF0E023C3F80421054B1B78EC
:1038C00013F0040F05D0054B9A684FF0E023C3F8BE
:1038D000082138BD5C95FF1F4495FF1F5095FF1FC1
:1038E00000C002400110013801401F0000001F808D
:1038F00070B50121072000F0BDFA02210E2000F072
:10390000B9FA0121072000F085FAFEF76FFE0025C5
:1039100040F224440A262846FFF70CFFA04214D0A8
:10392000304600F087FB0121072000F0A3FA0221B6
:103930000E2000F09FFA0121072000F06BFAFEF73D
:1039400055FE642000F076FBE5E70020FFF7F2FE6D
:103950004FF400411020FFF725FF642000F06AFBC0
:103960002024002529462046FFF71CFF0134E4B23D
:10397000342CF7D140211020FFF714FF60240025DC
:1039800029462046FFF70EFF0134E4B2742CF7D12C
:1039900021244FF4A24529462046FFF703FF0134B6
:1039A000E4B22A2CF7D147F260112020FFF7FAFE8B
:1039B0001020FFF7BFFE81B241F003011020FFF796
:1039C000F1FE70BD08B50749012303FA00F20B6848
:1039D00023EA02030B604030C0B2FFF7ABFE80B2B7
:1039E00008BD00BF7CA8FF1F38B504460120FFF7C3
:1039F000A1FE10F0020F05D1094B1868204100F01C
:103A0000010038BD0320FFF795FE05460220FFF7B1
:103A100091FE034A1368034343EA05431360EBE74F
:103A20007CA8FF1F08B501210F2000F023FA012117
:103A3000162000F01FFA0121172000F01BFA0121C7
:103A4000092000F017FA0221192000F013FA0121D1
:103A5000062000F00FFA0121142000F00BFA0121DA
:103A6000152000F007FA0121052000F003FA0221D9
:103A7000084600F0FFF908BD10B5044610F0010F2C
:103A800014BF012100210F2000F0C4F914F0020F2F
:103A900014BF01210021162000F0BCF914F0040F1E
:103AA00014BF01210021172000F0B4F914F0080F11
:103AB00014BF01210021092000F0ACF910BD10B5A0
:103AC000044610F0010F14BF01210021062000F070
:103AD000A1F914F0020F14BF01210021142000F0FD
:103AE00099F914F0040F14BF01210021152000F0F2
:103AF00091F914F0080F14BF01210021052000F0F6
:103B000089F910BD2DE9F04F85B04FEA800A5FFAC0
:103B10008AF90026534FDFF85081DFF850B153E0A7
:103B2000242001F0EDFBC82860DD514B01225A55DD
:103B30002C46504B00221A554F4B1B5D83B94E4B00
:103B400001221A554D4B00221A5505F00300AB080F
:103B50004B4A126803EBC0009047464B1B5D23B9EC
:103B60003B680093009B48F82430414B1B5D002BC1
:103B700056D03B680193019B58F824209B1A0A2BCE
:103B80001FD93B680293029B9A1A5A4505D93B6894
:103B90000393039B0B3B48F82430364B00221A5505
:103BA000364B1B5D6BB9354B01221A55324B002247
:103BB0001A5505F00300AD08324B1B6805EBC00039
:103BC00098470136042E49D0F3B209EB0305EDB254
:103BD000032B0FD801A252F823F000BF213B0000B5
:103BE000FF3B0000293C0000433C0000204B00222A
:103BF00003F80A202C461E4B5B5D6BB199E725202C
:103C000001F07EFBC82803DD194B01225A558FE7CE
:103C1000174B00225A552C46164B1B5D002B9FD08C
:103C2000144B01221A55A4E7222001F069FBC82891
:103C300003DD0F4B01225A557AE70D4B00225A55EE
:103C4000E9E7232001F05CFBC82803DD084B0122D3
:103C50005A556DE7064B00225A55DCE705B0BDE822
:103C6000F08F00BF94A9FF1F00A9FF1F00286BEE73
:103C700080A8FF1FE0A8FF1FA0A8FF1FC0A8FF1F6C
:103C800080A9FF1F84A9FF1F10B582B00F4C1049F7
:103C90002046FFF76AFB1023032204212046FFF78A
:103CA00035FB0A2001F0FEFA0A48031F0A4A7C305D
:103CB0000A4C4FF0010C21680191019943F8041F4F
:103CC00002F801CF8342F6D102B010BDD8A7FF1F82
:103CD000053B000000A9FF1FBFA8FF1F94A9FF1FFD
:103CE00008B50248FFF72FFB08BD00BFD8A7FF1F8C
:103CF000014B1860704700BF80A9FF1F014B18607F
:103D0000704700BF84A9FF1F82B0064B064803F12D
:103D1000800102680192019A43F8042B8B42F8D18A
:103D200002B0704700A9FF1F94A9FF1F00B583B020
:103D30000D2300930B230C220821FCF789FB03B011
:103D40005DF804FB08B50A4641F2041341F67271AE
:103D5000FCF7FDFC08BDFFFF014B024A9A6070476B
:103D600088A9FF1F011001387047FFFF1D4B03EBAF
:103D7000C0035B6803F14042A2F592227C2A1AD963
:103D800003F14042A2F594227C2A24D903F1404257
:103D9000A2F596227C2A20D903F14042A2F598226E
:103DA0007C2A1CD903F14042A2F59A227C2A01D830
:103DB0000D4901E070470D4972B61A6822F087720A
:103DC00022F4803242F080721A6003F07C03084AC9
:103DD000CA5062B670470749EEE70749ECE7074962
:103DE000EAE700BFAC7D0000C08BFF1FE88AFF1F21
:103DF000693D0000208BFF1F708BFF1FA08BFF1FF2
:103E0000034B00225A615A60186010225A617047B1
:103E100000D0034021281CD80E4B53F8303093F8C3
:103E2000802242B119B1012283F88020704701221B
:103E300083F800217047074B03EBC000436821B1B2
:103E40001A6842F003021A6070471A6822F00202F0
:103E50001A607047AC7D0000212806D8044B53F847
:103E6000303093F80002C0B270470020704700BFA6
:103E7000AC7D000021283AD81D4B03EBC0035B68E2
:103E8000012919D0042925D0194A52F830200020E0
:103E900082F8800219B94FF480721A6070470229C3
:103EA00006D003290CBF4FF4817200221A607047BC
:103EB00040F203121A6070470D4A52F83020012177
:103EC00082F880124FF4A2721A601A6822F020025F
:103ED0001A607047064A52F83020012182F8801299
:103EE0004FF4A2721A601A6842F020021A607047FA
:103EF000AC7D0000212863D870B50E46042A58D83E
:103F0000DFE802F03F413D03430009252D042D4B1E
:103F100003EBC0035C68236813F4E06F37D02A4BCF
:103F20002A4AC3F89C212A4AC3F8A021294AC3F887
:103F3000A421294AC3F8A821284AC3F8AC2104F1D6
:103F40004043A3F592237C2B25D904F14043A3F5EC
:103F500094237C2B2ED904F14043A3F596237C2B8C
:103F60002AD904F14043A3F598237C2B26D904F1E8
:103F70004043A3F59A237C2B1BD8194A0CE00A2551
:103F8000C4E70825C2E70C25C0E70B25BEE70021E2
:103F9000FFF770FFC3E7134A72B6236823F4702358
:103FA0001D43236004F07C03D65045F080752560E6
:103FB00062B670BD0C4AEFE70C4AEDE70C4AEBE73E
:103FC000704700BFAC7D00000082FF1FE187FF1F2C
:103FD000B187FF1F8187FF1F5187FF1F2187FF1FA9
:103FE000C08BFF1FE88AFF1F208BFF1F708BFF1FF6
:103FF000A08BFF1F72B64FF0E02290690B4B1B683D
:10400000D2F8042D62B612F0806F02D0322888BF39
:104010000133C0F5BB30FF30054AA2FB00204FF44E
:104020007A7202FB03F303EB9010704794A9FF1F11
:10403000ABAAAAAA38B50446FFF7DCFF04B938BD1D
:10404000054601E0FEF7ACFAFFF7D4FF431BB3F5DA
:104050007A7FF7D3013CF2D005F57A75F4E7FFFFDC
:1040600010B54FF0E0234FF40002C3F808214FF0E1
:104070008072C3F808214FF00072C3F808214FF096
:104080008062C3F808214FF00062C3F80821144A87
:10409000002454604BF6FF7090602823D360536176
:1040A000D3615362D3625363D363536409211160B4
:1040B00002F5805254609060D3605361116002F544
:1040C000FE2254609060D3605361116001F078F873
:1040D0004FF4C870FFF7AEFF00F0CCFF10BD00BF7B
:1040E00000800340264A536B43F40063536300236C
:1040F000244A1370244A1370244A1370244A1370FC
:10410000244A1370244B1B78092B25D01A2B28D056
:10411000224B1B780A2B29D01F2B2CD0C0F3443202
:104120001F4B1A70C0F347125A7000F01F009872AC
:1041300004229A700221D9745A7588221A743C227A
:10414000DA70184B402283F82F204FF0E0234FF411
:104150000042C3F804217047134B40F21332DA6077
:10416000D6E7124B40F213325A60D1E70E4B4FF4B0
:1041700051721A61D2E70D4B4FF451721A60CDE7BC
:10418000008004409CA9FF1F9DA9FF1FA8A9FF1F35
:10419000A9A9FF1FA4A9FF1FC88BFF1FC98BFF1F61
:1041A00000B0064000E400E000B0044000D004404D
:1041B000164B9B7803F0EC0300F00302134310F05E
:1041C000040F18BF43F01003104A937000F00F0360
:1041D000042B15D00D4B5B7903F0EF0310F0100F9B
:1041E00018BF43F01003094A5371937903F0EF03AA
:1041F00010F0200F18BF43F01003044A937170476A
:10420000937943F040039371E4E700BF00B00640A8
:10421000224B5B6B13F4006F3FD010B5204B1B7823
:104220002BB11F4CFEF7BCF92378002BFAD14FF0CD
:10423000E0234FF40042C3F884211A4B0022DA70C5
:10424000194B1B78092B14D01A2B17D0174B1B783E
:1042500003F07F030A2B16D01F2B19D00023144A1A
:104260001370144A1370144B1B680BB101221A709F
:1042700010BD124B40F20312DA60E7E7104B40F238
:1042800003125A60E2E70D4B40F203121A61E5E7B0
:104290000B4B40F203121A60E0E7704700800440C5
:1042A000A4A9FF1F00B00640C88BFF1FC98BFF1FCA
:1042B0009CA9FF1F9DA9FF1F98A9FF1F00B00440E4
:1042C00000D0044010B50446084A1378002BFCD1F6
:1042D00001212046FFF7CEFD00212046FFF79AFD81
:1042E000034B53F83420034B1A6010BDA4A9FF1FE1
:1042F000AC7D0000A0A9FF1F8C4609B140F08000F2
:10430000174B1B78834217D0164A526B12F4006F7A
:1043100010D003F07F030A2B0FD01F2B11D0BCF15C
:10432000000F14BF6022442200F07F030A2B0CD040
:104330001F2B0FD00A4B187070470B4B00221A61CD
:10434000EDE70A4B00221A60E9E742F44072064B9F
:104350001A61EFE742F44072044B1A60EAE700BFCB
:10436000C98BFF1F0080044000B0044000D004400F
:10437000124B1B7883420ED0114A526B12F4006F1D
:1043800007D0092B08D01A2B0AD009280CD01A28DC
:104390000FD00A4B187070470A4B0022DA60F4E71E
:1043A000094B00225A60F0E7064B40F21332DA6004
:1043B000EFE7054B40F213325A60EAE7C88BFF1F64
:1043C0000080044000B0044000D004400D4B5B6B03
:1043D00013F4006F13D0212803D900200A4B186072
:1043E000704710B5084C094B53F830302360012159
:1043F000FFF740FD236800221A70012010BD002045
:10440000704700BF0080044098A9FF1FAC7D0000EA
:104410000D4B5B6B13F4006F13D017280AD10B4BB5
:1044200040F202329A600A4A537B43F0010353730D
:1044300001207047064A537B03F0FE0353730020AC
:1044400070470020704700BF0080044000B0044067
:1044500000B00640F8B51B4B5B6B13F4006F30D017
:104460000546194B1B680BB101221A70174B1B78BC
:10447000174B1B78CBB9174E154C174F03E0FF288D
:1044800010DC23788BB901F0FBFB4028F7DC337993
:1044900013F0800FF5D023783B78DBB2F371002363
:1044A0002370EEE7FEF77CF8EBE7EDB20A4B1D70E8
:1044B0000A4B01221A70054B00221A70054BBC22D0
:1044C000DA70F8BD00800440A0A9FF1FA8A9FF1F53
:1044D000A9A9FF1F00B00640A8A9FF1FA4A9FF1F9C
:1044E0002DE9F843214B5B6B13F4006F3BD005467D
:1044F0001F4B1B680BB101221A7005EB01084545E3
:104500002ED21C4F1C4C1D4EDFF8749021E0FF286A
:1045100011DC237893B901F0B3FB4028F7DC337941
:1045200013F0800FF5D0237899F80030DBB2F371E7
:1045300000232370EDE7FEF733F8EAE715F8013BB7
:1045400089F800300F4B01221A7000233B70A845F8
:1045500006D03B782378002BF0D1BC23F370DAE748
:10456000064BBC22DA70BDE8F88300BF008004402F
:10457000A0A9FF1FA8A9FF1FA9A9FF1F00B00640FF
:10458000A8A9FF1FA4A9FF1F054B1B783BB110B5BD
:10459000034CFEF705F82378002BFAD110BD7047C5
:1045A000A4A9FF1F044B1878C0B2044B1B78DBB2E0
:1045B000013B181A704700BFA8A9FF1FA9A9FF1F38
:1045C000024B1878024B1B78C01A70479CA9FF1F3A
:1045D0009DA9FF1F084B1B78084A1278DBB2934253
:1045E00006D0074B1878C0B2044B00221A707047EF
:1045F0004FF0FF30704700BF9CA9FF1F9DA9FF1F10
:104600009CA9FF1F064B1B78064A1278DBB2934227
:104610001DBF054B1878C0B24FF0FF30704700BF88
:104620009CA9FF1F9DA9FF1F9CA9FF1F0D4B5B6B42
:1046300013F4006F14D00C4BDA7802F0CB02DA706E
:1046400040225A74DA7842F03402DA70074B1B7851
:10465000DBB2074A1370074B1B680BB100221A70BC
:10466000704700BF0080044000B006409DA9FF1FB6
:104670009CA9FF1F98A9FF1F70B43A4B1B7913F038
:10468000300F0AD072B6374B9A7D02F0FF03F2B9B1
:10469000344BDA7940225A7462B6324BDB78DCB2A2
:1046A00013F0800F37D114F0400F0ED02D4B1B7933
:1046B00013F0400F09D02C4B00221A702B4B1B68B3
:1046C00003B11A70274B3C22DA7070BC704762B697
:1046D000274A1078C0B2274A1178C9B2214C264E19
:1046E000002505E032702846013B13F0FF0304D09B
:1046F000E279D2B20029F7D0F4E7C3B21C4A1370B2
:104700001E4B1B68002BC8D0411A11F1180FA4BF13
:1047100001221A70C1E7134B1B7913F0800FC2D02E
:10472000174B1878C0B2174B1978C9B20D4A164DFD
:104730004FF0000C814209D013792B78DBB2D37192
:10474000137DDBB26146072BF4D90020C0B20D4BBC
:104750001870044B1B7913F0800FA4D0014B7C22FE
:10476000DA70A0E700B00640A4A9FF1FA0A9FF1FB0
:104770009CA9FF1F9DA9FF1F9CA9FF1F98A9FF1FB0
:10478000A8A9FF1FA9A9FF1FA8A9FF1F0D4B1B78F0
:1047900043F0020C0C4A02EBCC0250600B4A127838
:1047A000002A14BFC820882040EA0140064941F889
:1047B0003C0082F0010205490A7083F00103014ABE
:1047C000137070472CAAFF1F0080FF1F2DAAFF1F28
:1047D000431E032B12D872B6094A52F8230058B16F
:1047E000416842F82310074931F81320B0F800C09F
:1047F000A2EB0C0221F8132062B67047002070472C
:104800003CAAFF1F8CAAFF1F013803280DD872B6DF
:10481000074B53F8203033B1002001305B68002B88
:10482000FBD162B670470020FBE70020704700BF55
:1048300064AAFF1F38B572B604231C4A1C4C10E052
:104840001B4A02EBC301083048601A4942F8331092
:10485000194A1378013B137062B625E00433142B18
:104860001CD012F8011B11F0080FF7D054F83310C8
:104870000029E5D043F0010154F83150002DEDD16D
:104880000B4B03EBC102083050600C4A43F8312057
:10489000094A1378013B137062B605E062B6064B15
:1048A00000221A7001F088F938BD00BF3C7F00007B
:1048B0000080FF1F8800400094AAFF1FC80040002E
:1048C000421E032A39D810B4400140F010001B4B9F
:1048D000184472B61A4B9B5C032B1BD8DFE803F01D
:1048E0002B1402170523164CA35401F1080343604F
:1048F00010F0080F14BFC82388230A8843EA024334
:10490000036062B610BC704708300223EBE7083042
:104910000423E8E70B4B53F822303BB9094B43F82B
:104920002210094B43F8221062B6EBE7064B53F80E
:1049300022305960F5E70323D5E770470080FF1F59
:1049400084AAFF1F64AAFF1F74AAFF1F2DE9F04F5E
:1049500085B0A64CDFF898B2A6E100BEBAE101F03E
:10496000D9FAC3E1950804EBC50254F83530C3F316
:1049700083035268092B00F075820ED8013B012B8E
:1049800000F28A819B4B198842F22103994200F080
:104990005482994B44F835307EE10D2B40F07C81F8
:1049A0001168944B196052685A60934B44F8353043
:1049B0000023924803602361A361914B012018708A
:1049C0008BB240F2816083423CD8B3F5D06F80F067
:1049D000FD81B3F5817F00F0E28112D940F202300F
:1049E000834227D102F07F02042A00F3EA810B0CF4
:1049F00040F0E7811BF8223043F002030BF822302D
:104A000032E0802B00F0C081822B47D193B2042B7F
:104A100000F2C0817B4B00211970597092B21BF8D3
:104A2000223013F0020F00F00E83764B01221A7031
:104A300002220CE1B3F5A06F30D100210846FFF748
:104A4000A5FE25E142F22102934200F0218110D916
:104A500042F2212293421DD16B4B1A686B4B1A60B4
:104A6000C1F307416A4B197000210846FFF78EFE1B
:104A70000EE1B3F5086F00F0E580B3F5106F0DD1CE
:104A8000C1F30741634B1970DFF860A10AF180069A
:104A900055460BE042F221329342CED05E4B0F22BC
:104AA00083F8C020F4E00835B54208D02B6A13F033
:104AB000800FF8D0686A083801F07EF8F3E7574FA6
:104AC000DFF85C91DFF85C81574B0093574B019303
:104AD000574B0026CDF80CA09A4606E089F80060F6
:104AE00009F10109534B9F4239D057F8045B2DB1AE
:104AF00028466D6801F060F8002DF9D147F8046C84
:104B00004AF8046BCDF80880D8F800502DB128463B
:104B10006D6801F051F8002DF9D1029B1E6008F17B
:104B20000408009B43F8046B0093019B23F8026B7D
:104B3000019399F80030023B032BD1D801A252F81F
:104B400023F000BFDD4A0000554B0000DD4A0000A5
:104B5000554B00004FF0010389F80030C0E7DDF845
:104B60000CA0354B00221A700425344F16461CE069
:104B7000CAF82060304A13780133137027E045F0FB
:104B8000010344F833602C4A13780133137045F065
:104B9000020344F8336045F0030344F833600435FE
:104BA0000AF1200A142D3FF45FAF17F8013B05F816
:104BB0000B3013F0080FEAD000F0DEFF03460028A8
:104BC000D6D00833CAF824301D4BCAF8203000F084
:104BD000D3FF03460028D2D045F0010204EBC20106
:104BE00008334B60044B44F83230D0E70080FF1F9D
:104BF000C02007405CAAFF1FC800400030AAFF1F6A
:104C00002DAAFF1F34AAFF1F94A9FF1F48ABFF1F47
:104C100044ABFF1F88AAFF1F002007403CAAFF1FCC
:104C200084AAFF1F64AAFF1F74AAFF1F8CAAFF1F7C
:104C30004CAAFF1F4CAAFF1F94AAFF1F3C7F000035
:104C400088004000A64B1A78A64B1A700122A64B8A
:104C5000DE88964228BF16463746402E28BF40279A
:104C6000A04D39462846FFF791FD3D44F61B0FD075
:104C70003746402E28BF402739462846FFF786FD95
:104C80003D44F71B00F0D580984B1D60984B1F806A
:104C9000984B012283F89420964B012283F89420AC
:104CA000944B082283F88020924B93F88030DDB239
:104CB00013F0040F1ED08A4B1B78BBB18E4B1A78B1
:104CC00002F0FF0332B1013BDBB28B4A1370002BC1
:104CD0003FF443AE894B1A7802F0FF0332B1013B37
:104CE000DBB2864A1370002B3FF439AE814B0422AD
:104CF00083F8802015F0080F00F05D817D4B93F85C
:104D00009030DAB21B093FF42DAE960804EBC607CB
:104D10007968A1F10800013BDDB212F0080F40F004
:104D2000C98054F836301B0C21F8083C002B00F0E9
:104D30003981002321F8063C41F8043C704B53F8BC
:104D40002530002B00F022816E4B53F8253058603F
:104D50006C4B43F825006C4A32F8153031F8081CCA
:104D60000B4422F8153000F007FF0346002800F03E
:104D7000118108337B6017F0080F644B644A08BF49
:104D8000134644F836308BE7564B00221A705A709F
:104D900002225CE7574B0F2283F8C02078E702F02D
:104DA0007F02042A08DC0B0C06D11BF8223023F00A
:104DB00002030BF8223057E64E4B0F2283F8C02037
:104DC00066E74C4B0F2283F8C02061E7514B5D68CA
:104DD00055B3C1F30F4192B202E00C335D681DB3CD
:104DE0001E888E42F9D15E889642F6D1080A0328C1
:104DF0000CBF2A781A893C4BDF88974228BF174698
:104E00003E46402F28BF402631462846FFF7BEFCCD
:104E10003544BE1B7FF42CAF3F2F7FF639AF002106
:104E20002846FFF7B3FC33E7324B0F2283F8C0204C
:104E30002EE73F2E3FF628AF2AE7374BD01D12F85A
:104E4000011B03F8011F8242F9D1344B1B68862BEA
:104E500004D000210846FFF799FC9AE5264B0F2263
:104E60001A70F6E7214B1E68B6B1DFF88480B8F8F7
:104E700000703D46402F28BF402529463046FFF7A9
:104E800085FC2E447D1BADB2A8F8005015B93F2F0C
:104E900098BF0026154B1E60134B1B88B3F5A06FFF
:104EA0007FF4FAAE104B00225A709A78114B83F8B7
:104EB0009820F1E600F080FE194B53F82530002BC6
:104EC0004CD05968164A42F8251003F108027A605E
:104ED000144A525D032A2AD8DFE802F02634383C0F
:104EE00088AAFF1F34AAFF1F5CAAFF1F30AAFF1F5A
:104EF0002EAAFF1F0020074089AAFF1F4CABFF1FEF
:104F00003CAAFF1F4CAAFF1F8CAAFF1FC80040002D
:104F100088004000E87E00003BABFF1F3CABFF1F5A
:104F200064AAFF1F84AAFF1F484A0321515517F0A6
:104F3000080F14BFC82288221B8842EA034344F8A2
:104F40003630ADE6414A02215155F0E73F4A05218E
:104F50005155ECE73D4A04215155E8E73B4B5B5D79
:104F6000022B07D07FF69CAE032B07D1374B0122D3
:104F70005A5595E6354B00225A5591E617F0080F21
:104F800014BF03220222314B5A5589E6304B43F8B5
:104F90002500DDE6002344F836302E4A137801332D
:104FA00013707DE617F0080F2B4B2C4A08BF1346F1
:104FB00044F8363074E615F0010F16D115F0800F65
:104FC00039D115F0020F08D0254B93F88820D2B2C2
:104FD00083F88820022283F8802015F0100F27D054
:104FE0001F4B102283F8802022E01D4B022283F801
:104FF000942000211B4A11701B4A184810601B4C5A
:10500000546090601A48D060116191610D2283F85C
:10501000C020FF2283F8882083F8802083F898102E
:1050200083F88C209F2283F88420012283F8942027
:1050300005B0BDE8F08F0A4B0D2283F8C020802216
:1050400083F88020BDE7022201E600BF84AAFF1F8B
:105050003CAAFF1F94AAFF1FC80040008800400020
:10506000002007402CAAFF1F0080FF1FACA9FF1FD4
:10507000ECA9FF1F08B501F0C1F91B4800F1880138
:10508000034600221A605A6008338B42FAD1174A4D
:10509000536B43F480235363C0F30722144B83F80C
:1050A0009C20C0F3074283F8B020000E83F8B400C0
:1050B000FF2283F8802083F888201A74012183F866
:1050C00094100C4A0020107083F884100A4B702151
:1050D00083F849104FF0E0234FF40071C3F8081132
:1050E0001023137208BD00BF0080FF1F0080044022
:1050F000002007400021074000E400E02D4A2E492F
:10510000536A13F0800FFBD14B6A13F0800FF7D175
:1051100072B62A4B1B78002B49D070B4254A936B8A
:10512000D66B156C546C906CD16C33442B44234477
:1051300003440B44C3F34E0343F40043D362936D23
:10514000D66D156E546E906ED16E33442B4423444D
:1051500003440B44C3F34E0343F40043136302F5CB
:105160000022936BD66B156C546C906CD16C3344ED
:105170002B44234403440B44C3F34E0343F4004342
:10518000D362936DD46D166E556E906ED16E2344BE
:1051900033442B4403440B44C3F34E0343F4004312
:1051A0001363064B00221A7062B670BC704762B679
:1051B000704700BF00B0034000B00B4099AAFF1F2A
:1051C000324B60221A70E1225A70314B1B78082B47
:1051D00023D00A2B2BD00C2B2E4B0CBF35213D217D
:1051E00099601222DA6003F500239960DA602A4B95
:1051F0001B7833B30123274A136202F5002213629E
:10520000264B1B78012B23D9042B2BD88423214A2E
:10521000536202F50022536220E01E4B0121996087
:105220001322DA6003F500239960DA60DFE7194B97
:10523000392199601322DA6003F500239960DA605E
:10524000D5E70023134A136202F500221362D7E761
:105250008023104A536202F500225362104B012250
:105260001A707047082B06D885230A4A536202F544
:1052700000225362F2E7102B94BF86238723054A4E
:10528000536202F500225362E8E700BF0040074086
:10529000CA8BFF1F00B0034097AAFF1FCB8BFF1FD5
:1052A00099AAFF1F08B50C2819D9102828BF10206B
:1052B0001023D9B2181A0E4A10700E4A12789A4268
:1052C0000CD00C4B19700C4B1B782BB100230B4AE4
:1052D000536202F500225362FFF772FF08BD0A28ED
:1052E00004D808288CBF0A230823E2E70C23E0E750
:1052F00098AAFF1FCA8BFF1F99AAFF1F00B0034087
:1053000028285FD82DE9F041304B1E5CFF2E5BD082
:105310002F4B1B782BBB16F0800F25D172B62D4C6E
:105320002D4D4FF0010726602F7062B672B62368CC
:1053300013F0800F0AD12B78002BF4D062B6FDF762
:105340002FF972B6236813F0800FF4D0214B18693F
:10535000214B00221A7062B6204B1B781841BDE821
:10536000F081FFF7CBFED6E772B61D4C06F03F0882
:105370001C4D4FF0010716F0400FE36814BF23F0F7
:10538000100343F01003E360C4F800802F7062B68E
:1053900072B6236813F0800F0AD12B78002BEAD065
:1053A00062B6FDF7FDF872B6236813F0800FF4D0F3
:1053B0000B4B18690B4B00221A7062B6074B1B7817
:1053C0001841CCE7002070470020C8E7BC7E0000F1
:1053D00099AAFF1F00B0034095AAFF1F98AAFF1FBC
:1053E00000B00B4096AAFF1F30B58446084601392D
:1053F0000D464FF0000E02E00EF1010E9C46BCFB84
:10540000F2F302FB13C3092B94BF30333733DBB203
:10541000744605F8013FBCFBF2F36245ECD9631C0E
:1054200000EB030C0022C25496450EDD0A4611F82B
:10543000013F1CF8015D0D708CF800300232121A29
:10544000CB43034423449A42F0DB30BD264A536BDE
:1054500043F4806353630023244A1370244A137077
:10546000244A1370244A1370244A1370244B1B7867
:105470002BB3152B28D0234B1B78012B29D0052BC0
:105480002CD0C0F34432204B1A70C0F347125A702C
:1054900000F01F00987204229A700221D9745A7584
:1054A00088221A743C22DA70184B402283F82D208F
:1054B0004FF0E0234FF40052C3F804217047144B1F
:1054C00040F213321A64D6E7124B40F213329A615B
:1054D000D1E70F4B4FF451725A64D2E70D4B4FF4A2
:1054E0005172DA61CDE700BF00800440E0AAFF1FDF
:1054F000E1AAFF1F2CABFF1F2DABFF1FE8AAFF1F68
:10550000E2AAFF1FCC8BFF1F00A0064000E400E0D2
:1055100000A0044000C00440164B9B7803F0EC034D
:1055200000F00302134310F0040F18BF43F0100300
:10553000104A937000F00F03042B15D00D4B5B79CC
:1055400003F0EF0310F0100F18BF43F01003094AE7
:105550005371937903F0EF0310F0200F18BF43F05D
:105560001003044A93717047937943F04003937199
:10557000E4E700BF00A00640144B5B6B13F4806FA0
:1055800022D010B5124B1B782BB1114CFDF708F847
:105590002378002BFAD14FF0E0234FF40052C3F8E8
:1055A000842100230B4AD370A2F5003240F203118C
:1055B00011645164084A1370084A1370084B1B6841
:1055C0000BB101221A7010BD704700BF008004406B
:1055D000E8AAFF1F00A00640E0AAFF1FE1AAFF1FE4
:1055E0009CAAFF1F10B50446084A1378002BFCD173
:1055F00001212046FEF73EFC00212046FEF70AFC72
:10560000034B53F83420034B1A6010BDE8AAFF1F68
:10561000AC7D0000E4AAFF1F8C4609B140F0800079
:10562000174B1B78834217D0164A526B12F4806FC7
:1056300010D003F07F03012B0FD0052B11D0BCF14C
:10564000000F14BF6022442200F07F03012B0CD016
:10565000052B0FD00A4B187070470B4B00225A6471
:10566000EDE70A4B0022DA61E9E742F44072064BAB
:105670005A64EFE742F44072044BDA61EAE700BF94
:10568000CC8BFF1F0080044000A0044000C00440F9
:10569000114B1B7883420CD0104A526B12F4806F6E
:1056A00005D03BB1152B09D060B115280FD00A4B9E
:1056B000187070470A4B00221A64F5E7094B002264
:1056C0009A61F1E7064B40F213321A64EFE7054B9B
:1056D00040F213329A61EAE7E2AAFF1F0080044019
:1056E00000A0044000C004400D4B5B6B13F4806FBE
:1056F00013D0212803D900200A4B1860704710B539
:10570000084C094B53F8303023600121FEF7B2FBFF
:10571000236800221A70012010BD0020704700BFCE
:10572000008004409CAAFF1FAC7D0000104B5B6B07
:1057300013F4806F1AD0122806D014280FD10D4B05
:1057400040F202325A6103E00B4B40F20232DA605F
:105750000A4A537B43F00103537301207047074A01
:10576000537B03F0FE035373002070470020704703
:105770000080044000C0044000A0044000A0064097
:10578000244B5B6B13F4806F42D02DE9F041064649
:10579000214B1B680BB101221A70204B1C7801347D
:1057A000402C28BF00241E4B1B78DBB29C4221D129
:1057B0001C4F1B4DDFF8708005E0FF2817DC2B78AD
:1057C000DBB2A34216D100F05BFA4028F5DC3B794E
:1057D00013F0800FF3D02B780133402B28BF002328
:1057E00018F80320D2B2FA71DBB22B70E7E7FCF7AE
:1057F000D7FEE4E7F6B20C4B1E550C4B01221A7093
:10580000E4B2064B1C70074BBC22DA70BDE8F08195
:10581000704700BF00800440E4AAFF1F2CABFF1FAD
:105820002DABFF1F00A00640ECAAFF1FE8AAFF1F38
:105830002A4B5B6B13F4806F4ED02DE9F047054681
:10584000274B1B680BB101221A7005EB0108454577
:105850003DD2244F244EDFF894A0DFF8949029E045
:10586000FF2819DC3378DBB29C4218D100F008FA2B
:105870004028F5DC9AF8043013F0800FF2D033782A
:105880000133402B28BF002319F80320D2B28AF835
:105890000720DBB23370E5E7FCF782FEE2E715F89C
:1058A000013B09F80430134B01221A70E4B23C703A
:1058B000A8450CD03C780134402C28BF0024337814
:1058C000DBB2A342EBD1BC238AF80330CEE7074B0F
:1058D000BC22DA70BDE8F087704700BF008004404A
:1058E000E4AAFF1F2CABFF1F2DABFF1F00A006403B
:1058F000ECAAFF1FE8AAFF1F054B1B783BB110B5B0
:10590000034CFCF74DFE2378002BFAD110BD7047F5
:10591000E8AAFF1F064B1878C0B2064B1B78DBB213
:1059200098422CBF3F3303F1FF33181A704700BF72
:105930002CABFF1F2DABFF1F054B1878C3B2054AD8
:105940001078C0B2834238BF4033181A704700BF86
:10595000E0AAFF1FE1AAFF1F194B1A78D2B2194B18
:105960001B78DBB29A4216D0591C3F2916D810B4C6
:105970001548405CC0B2CBB2124C2370134B1B686D
:105980003BB18A4238BF4032511A1A2901DC002249
:105990001A7010BC70474FF0FF3070470A4B1878F0
:1059A000C0B2084B00211970084B1B6833B10021AD
:1059B000511A1A29DCBF00221A707047704700BFC5
:1059C000E0AAFF1FE1AAFF1FA0AAFF1F9CAAFF1FBA
:1059D000094B1A78D2B2094B1B78DBB29A4207D036
:1059E0000133402B28BF0023054AD05CC0B270476A
:1059F0004FF0FF30704700BFE0AAFF1FE1AAFF1F72
:105A0000A0AAFF1F0D4B5B6B13F4806F14D00C4BDF
:105A1000DA7802F0CB02DA7040225A74DA7842F077
:105A20003402DA70074B1B78DBB2074A1370074B5E
:105A30001B680BB100221A70704700BF0080044041
:105A400000A00640E1AAFF1FE0AAFF1F9CAAFF1FBB
:105A500030B43F4B1B7913F0300F0AD072B63C4B79
:105A60009B7D03F0FF02F3B9394BDA7940225A7477
:105A700062B6374BDB78DCB213F0800F3FD114F005
:105A8000400F0ED0324B1B7913F0400F09D0314B31
:105A900000221A70304B1B6803B11A702C4B3C2249
:105AA000DA7030BC704762B62C4B1878C0B22C4B01
:105AB00093F800C05FFA8CFC254C2A4DE379D9B2EB
:105AC000431C402B28BF002363451CBFE9541846E4
:105AD000531E13F0FF02F1D1C3B2204A1370224BC0
